:020000040800F2
:10000000600B00200D020008690200086902000868
:100010006902000869020008690200080000000087
:10002000000000000000000000000000690200085D
:100030006902000800000000690200086902000867
:1000400069020008690200086902000869020008E4
:1000500069020008690200087108000869020008C6
:1000600069020008690200086902000869020008C4
:1000700069020008690200086902000869020008B4
:1000800069020008690200086902000869020008A4
:100090006902000869020008690200086902000894
:1000A0006902000869020008690200086902000884
:1000B000ED020008690200086902000869020008F0
:1000C0006902000869020008690200086902000864
:1000D0006902000869020008690200086902000854
:1000E000E1090008690200086902000869020008C5
:1000F0006902000869020008690200086902000834
:100100006902000869020008790500086902000810
:10011000690200086902000869020008ED0600088B
:100120006902000869020008690200086902000803
:1001300069020008690200086902000869020008F3
:1001400069020008690200086902000869020008E3
:1001500069020008690200086902000869020008D3
:1001600069020008690200086902000869020008C3
:1001700069020008690200086902000869020008B3
:10018000690200086902000890B484B000AF034619
:100190000A46FB711346BB710023FB60BB7903F079
:1001A00003039B000F2202FA03F3FB601649BB799D
:1001B0009B08DBB21846144ABB799B08DBB20233BA
:1001C00052F82320FB68DB431A40831C41F82320AC
:1001D0000D48BB799B08DBB21C460B4ABB799B08D8
:1001E000DBB2023352F82320F979BB7903F0030321
:1001F0009B0001FA03F31A43A31C40F8232000BF1D
:100200001037BD4690BC70470038014080B582B0C1
:1002100000AF104B7B60104B3B6007E03B681A1D42
:100220003A607A68111D796012681A603B680B4A5F
:100230009342F3D30A480B494FF000028842B8BFFB
:1002400040F8042BFADB00F017FC00BF0837BD466E
:1002500080BD00BF302F00080000002018030020E0
:10026000180300205C03002080B400AFFEE700BF4D
:1002700080B584B000AF0121012000F00DFD41F2F6
:100280006703BB6040F2E733BB800023BB810023E0
:10029000FB803B1D19464FF0804001F0E5FE012137
:1002A0004FF0804001F058FF00BF1037BD4680BDC1
:1002B00080B582B000AF1C233B7100237B7100230B
:1002C000BB710123FB713B1D184601F06DFE01213E
:1002D0004FF0804001F0AEFF012201214FF080403D
:1002E00001F05AFF00BF0837BD4680BD80B500AFA2
:1002F00001214FF0804001F073FF0346002B00F016
:10030000AF8000F085FA00F03BFB8021554801F0FA
:100310001FF92021534801F01BF90021524801F038
:100320000DFF0021514801F009FF0021504801F064
:1003300005FF80214B4801F0FDF82021494801F0DC
:10034000F9F80121484801F007FF4A4B1B6818469D
:1003500002F0C8FD0246134612019B1ADB0003F5AA
:10036000FD531833444A1360434B1B6841F6E74280
:10037000934203DD404B41F6E8421A603E4B1B6856
:1003800041F61722934209DD3B4B1B6841F6E742D9
:10039000934203DC384B41F618221A60364B1B6837
:1003A00041F24772934209DD334B1B6841F6172235
:1003B000934203DC304B41F248721A602E4B1B68AB
:1003C000B3F5AF5F09DB2C4B1B6841F247729342D8
:1003D00003DC294B4FF4AF521A60274B1B6841F2E4
:1003E0008732934208DD244B1B68B3F5AF5F03DA15
:1003F000214B41F288321A601F4B1B6841F22F12C9
:10040000934209DD1C4B1B6841F28732934203DCA7
:10041000194B41F230121A60174B1B68B3F5756F18
:1004200009DB154B1B6841F22F12934203DC124B80
:100430004FF475621A60104B1B68B3F5756F03DAE1
:100440000D4B4FF466621A600B4B1B68184600F0A8
:1004500055F800F073F801214FF0804001F0EAFEFA
:1004600000BF80BD001002400014004000040040A6
:10047000000800404C0300202C03002080B584B00D
:1004800000AF0121022000F007FC42F20F73BB60B5
:100490005323BB800023BB810023FB803B1D1946F7
:1004A000054801F0E1FD0021034801F055FE00BFC1
:1004B0001037BD4680BD00BF0004004080B584B049
:1004C00000AF0121042000F0E7FB42F20F73BB6094
:1004D0005323BB800023BB810023FB803B1D1946B7
:1004E000054801F0C1FD0021034801F035FE00BFC1
:1004F0001037BD4680BD00BF0008004080B586B003
:1005000000AF78600121082000F0C6FB7B683B61EA
:100510000123BB810023BB820023FB8107F10C0375
:100520001946054801F0A0FD0121034801F014FE21
:1005300000BF1837BD4680BD000C004080B582B0BA
:1005400000AF32233B7100237B710023BB71012379
:10055000FB713B1D184601F027FD0121054801F004
:1005600069FE01220121034801F016FE00BF083791
:10057000BD4680BD000C004098B500AF0121364853
:1005800001F02EFE0346002B5ED00221334801F01D
:100590001FFA0346002B53D0314B1B68314A32F807
:1005A0001320314B1A802E4B1B682E4A32F8132031
:1005B0002E4B1A802D4B1B881B0A9AB22B4B1A808C
:1005C000294B1B88184601F097FF21A3D3E900238C
:1005D00001F0F8FF03460C461846214602F004FAE3
:1005E00003469AB2204B1A80204B1B88184601F014
:1005F00083FF17A3D3E9002301F0E4FF03460C4671
:100600001846214602F0F0F903469AB2174B1A80B9
:10061000164B1B881946114801F0CCF9124B1B8868
:1006200019460E4801F0C6F90D4B1B6801330C4A00
:1006300013600B4B1B68FF2B02D1094B00221A6081
:100640000121054801F0F6FD00BF98BDAFF3008021
:100650007B14AE47E17A743F000C0040003C004040
:100660002803002004000020300300204003002065
:1006700080B584B000AF0121202000F00DFB40F2D6
:100680004733BB600123BB800023BB810023FB8079
:100690003B1D1946054801F0E7FC0121034801F024
:1006A0005BFD00BF1037BD4680BD00BF0014004099
:1006B00080B582B000AF37233B7100237B710023EC
:1006C000BB710123FB713B1D184601F06DFC01213C
:1006D000054801F0AFFD01220121034801F05CFD56
:1006E00000BF0837BD4680BD0014004080B500AF94
:1006F00001210C4801F074FD0346002B0FD080212E
:10070000094800F025FF2021074800F021FF0021C3
:10071000044801F021FD0121024801F08BFD00BFDA
:1007200080BD00BF001400400010024080B582B0C0
:1007300000AF0121102000F091FA0121082000F003
:100740008DFAA0233B6001233B710023BB7103237F
:100750007B710023FB713B4619460B4800F028FED5
:100760004FF480533B6001233B710023BB71032393
:100770007B710023FB713B461946044800F018FECC
:1007800000BF0837BD4680BD00100240000C02408B
:1007900080B586B000AF0121082000F05FFA01218A
:1007A0004FF4804000F096FA00233B750023BB75A0
:1007B00001233B610123FB7503237B7507F11003C4
:1007C0001946124800F0F4FD00210320FFF7DCFC7D
:1007D0000123BB600123BB7300233B7310237B7396
:1007E00007F10803184601F029FB06233B7100239B
:1007F0007B710023BB710123FB713B1D184601F087
:10080000D3FB00BF1837BD4680BD00BF000C0240BF
:1008100080B582B000AF01233B6000233B71102301
:100820007B710123BB713B46184601F007FB002199
:100830000320FFF7A9FC00BF0837BD4680BD00BFFD
:1008400080B582B000AF01233B6000233B711023D1
:100850007B710023BB713B46184601F0EFFA002183
:100860000320FFF791FC00BF0837BD4680BD00BFE5
:1008700080B500AF012001F053FB0346002B31D0BF
:100880000121194800F03CFE0346002B04D0012151
:10089000164801F061FC22E00121134800F030FE0F
:1008A0000346002B1BD10021104801F055FC0F4BD3
:1008B0005B6A9AB20E4B1A800D4B1B88184602F0E9
:1008C00069F903460B49184602F070FA03461A46C6
:1008D000094B1A60FFF7B4FF022001F045FB01202D
:1008E00001F042FB00BF80BD000C0240000400404C
:1008F00042030020000068424C03002080B586B00F
:1009000000AF0121022000F0A9F901214FF480403D
:1009100000F0E0F900233B750023BB754FF48053D2
:100920003B610123FB7503237B7507F11003194617
:10093000124800F03DFD0C210120FFF725FC4FF48B
:100940008053BB600123BB7300233B7310237B7375
:1009500007F10803184601F071FA28233B710023C0
:100960007B710123BB710123FB713B1D184601F014
:100970001BFB00BF1837BD4680BD00BF000402400E
:1009800080B582B000AF4FF480533B6000233B71D1
:1009900010237B710123BB713B46184601F04EFAD0
:1009A0000C210120FFF7F0FB00BF0837BD4680BDDA
:1009B00080B582B000AF4FF480533B6000233B71A1
:1009C00010237B710023BB713B46184601F036FAB9
:1009D0000C210120FFF7D8FB00BF0837BD4680BDC2
:1009E00080B500AF4FF4805001F09AFA0346002B17
:1009F00035D04FF480511B4800F082FD0346002B98
:100A000004D00121184801F0A7FB24E04FF48051E5
:100A1000144800F075FD0346002B1CD1002112483C
:100A200001F09AFB104B5B6A9AB2104B1A800F4B85
:100A30001B88184602F0AEF803460D49184602F02E
:100A4000B5F903461A460B4B1A60FFF7B1FF4FF496
:100A5000805001F089FA4FF4805001F085FA00BF10
:100A600080BD00BF000402400008004038030020A1
:100A7000000068423403002080B500AF00F0BEFDE6
:100A80004FF4C06001F07EFA01214FF4804000F085
:100A900021F9FFF77DFEFFF731FFFFF7D1FEFFF7EA
:100AA00087FFFFF743FEFFF7E3FBFFF701FCFFF7CC
:100AB000E5FCFFF703FDFFF7DBFDFFF7F9FDFFF7AF
:100AC0003DFD0121042000F0C9F800F05DF900F0BF
:100AD00013FA0121034800F04DFF002000F09EFBB7
:100AE000FEE700BF003C004080B483B000AF034687
:100AF000FB71044AFB79136000BF0C37BD4680BC14
:100B0000704700BF6800474280B489B000AF78608A
:100B10000023BB6100237B610023FB6102233B6157
:100B20000023FB600223BB60484B9B6803F00C036F
:100B3000BB61BB69042B07D0082B09D0002B3FD128
:100B40007B68434A1A603FE07B68424A1A603BE098
:100B50003E4B5B6803F480039B0DFB603B4B5B6883
:100B600003F03F03BB60FB68002B0DD0394ABB6824
:100B7000B2FBF3F2354B596847F6C0730B409B0943
:100B800003FB02F3FB610CE0314ABB68B2FBF3F2FA
:100B90002E4B596847F6C0730B409B0903FB02F3C9
:100BA000FB612A4B5B6803F440331B0C01335B0091
:100BB0003B61FA693B69B2FBF3F27B681A6003E0C0
:100BC0007B68234A1A6000BF204B9B6803F0F00348
:100BD000BB61BB691B09BB611F4ABB6913441B781E
:100BE000DBB27B617B681A687B69DA407B685A609C
:100BF000164B9B6803F4E053BB61BB699B0ABB6166
:100C0000154ABB6913441B78DBB27B617B685A6869
:100C10007B69DA407B689A600C4B9B6803F4604305
:100C2000BB61BB695B0BBB610B4ABB6913441B789F
:100C3000DBB27B617B685A687B69DA407B68DA608B
:100C400000BF2437BD4680BC704700BF003802405B
:100C50000024F40000127A000403002080B483B062
:100C600000AF78600B46FB70FB78002B06D009497B
:100C7000084B1A6B7B6813430B6306E00549054B71
:100C80001A6B7B68DB4313400B6300BF0C37BD4618
:100C900080BC70470038024080B483B000AF7860F9
:100CA0000B46FB70FB78002B06D00949084B1A6CE9
:100CB0007B6813430B6406E00549054B1A6C7B689F
:100CC000DB4313400B6400BF0C37BD4680BC70474C
:100CD0000038024080B483B000AF78600B46FB70F0
:100CE000FB78002B06D00949084B5A6C7B681343EC
:100CF0004B6406E00549054B5A6C7B68DB431340A7
:100D00004B6400BF0C37BD4680BC704700380240C2
:100D100080B483B000AF78600B46FB70FB78002B8B
:100D200006D00949084B1A6A7B6813430B6206E038
:100D30000549054B1A6A7B68DB4313400B6200BF11
:100D40000C37BD4680BC70470038024080B483B089
:100D500000AF78600B46FB70FB78002B06D009498A
:100D6000084B5A6A7B6813434B6206E00549054B02
:100D70005A6A7B68DB4313404B6200BF0C37BD46A9
:100D800080BC70470038024080B58AB000AF07F1E0
:100D90002003184600F09AFB10233B62012387F8DA
:100DA0002430022387F82730002387F826300223D7
:100DB00087F8253001210B20FFF750FF07F12003B2
:100DC0001946464800F0F4FA022387F8243001233C
:100DD00087F826304FF410733B62002387F82730E2
:100DE000022387F8253007F1200319463C4800F01C
:100DF000DFFA042206213A4800F0B8FB0422092158
:100E0000374800F0B3FB01214FF40210FFF744FF15
:100E10000120FFF769FE002387F826304FF4A45322
:100E20003B6207F1200319462E4800F0C1FA102357
:100E30003B6207F1200319462B4800F0B9FA06225D
:100E40000421294800F092FB06220721254800F0E2
:100E50008DFB06220A21234800F088FB06220C2184
:100E6000204800F083FB10211C4800F071FB1F4854
:100E700000F06CFC4BF68033BB614FF40073FB82D7
:100E80000023BB824FF400733B8200237B8200234C
:100E9000BB8307F110031946144800F091FC144875
:100EA00000F0B2FD134B3B600023BB8033233B813A
:100EB0004FF480637B814FF48043BB814BF6FF731B
:100EC000FB8001210A4800F09BFE3B46194608487A
:100ED00000F0D4FD00BF2837BD4680BD000C0240A5
:100EE000000402400008024000000240003C0040B4
:100EF00000540040A086010080B584B000AFFF23FD
:100F0000FB721021544800F015FB544BFB6002E0CB
:100F1000FB68013BFB60FB68002BF9D10D233B71A3
:100F200001237B713B1D0221184600F099F8002334
:100F30003B7199237B713B1D0221184600F090F80C
:100F400047233B7180237B713B1D0221184600F033
:100F500087F8322000F0E0F80346FB7232233B7141
:100F6000FB7A63F07F03DBB27B713B1D02211846E5
:100F700000F076F8322000F0CFF80346FB723223FF
:100F80003B71FB7A03F07F03DBB27B713B1D0221D7
:100F9000184600F065F800233B7100237B713B1D70
:100FA0000221184600F05CF804233B71AF237B71EB
:100FB0003B1D0221184600F053F80D233B717023AE
:100FC0007B713B1D0221184600F04AF805233B7156
:100FD00081237B713B1D0221184600F041F8062356
:100FE0003B7107237B713B1D0221184600F038F846
:100FF0000A233B7100237B713B1D0221184600F040
:101000002FF827233B7100237B713B1D02211846DB
:1010100000F026F89A233B710A237B710A23BB71E7
:101020003B1D0321184600F01BF81F233B710F23C3
:101030007B713B1D0221184600F012F802233B7120
:101040009E237B713B1D0221184600F009F800BF6A
:101050001037BD4680BD00BF000C024040420F006B
:1010600080B584B000AF78600B46FB700023FB7343
:1010700000BF4FF40031234800F0AEFE0346002BC2
:10108000F7D101211F4800F0DBFD00BF1E491D48BC
:1010900000F0A2FE0346002BF8D00022942119484C
:1010A00000F00EFE00BF1949164800F065FE034629
:1010B000002BF8D012E0FB7B7A6813441B781946AA
:1010C000104800F03BFEFB7B0133FB7300BF10496F
:1010D0000C4800F051FE0346002BF8D0FA7BFB7859
:1010E0009A42E8D300BF0B49064800F075FE03465C
:1010F000002BF8D00121034800F0C2FD00BF1037DB
:10110000BD4680BD00540040010000108200070071
:10111000800007000400001080B584B000AF0346D3
:10112000FB710023FB7300BF4FF40031354800F022
:1011300053FE0346002BF7D10121324800F080FD19
:1011400000BF31492F4800F047FE0346002BF8D07E
:10115000002294212B4800F0B3FD00BF2B49294801
:1011600000F00AFE0346002BF8D0FB79194625480B
:1011700000F0E4FD00BF2649224800F0FDFD0346D3
:10118000002BF8D001211F4800F07AFD00BF4FF47A
:1011900000311C4800F020FE0346002BF7D100214F
:1011A000184800F0ABFD0121164800F049FD00BFD2
:1011B0001549144800F010FE0346002BF8D0012218
:1011C0009421104800F07CFD00BF12490D4800F04A
:1011D000D3FD0346002BF8D000BF0F49094800F0AB
:1011E000CBFD0346002BF8D0064800F0B7FD0346C0
:1011F000FB730121034800F043FDFB7B18461037C9
:10120000BD4680BD00540040010000108200070070
:1012100080000700020003004000030080B582B098
:1012200000AF0346FB71FB79E62B0CD9FB79E73B5A
:101230001946202000F018F8FB79E73B19462120D9
:1012400000F012F80BE0FB7919331946202000F06A
:101250000BF8FB7919331946212000F005F800BF7F
:101260000837BD4680BD00BF80B584B000AF786050
:1012700039600023FB60464B4FF496121A6009E078
:10128000434B1B685A1E42490A60002B02D100F0F2
:101290008BF87AE04FF400313E4800F09DFD0346A4
:1012A000002BEDD101213B4800F0CAFC384B4FF434
:1012B00080521A6009E0364B1B685A1E34490A6096
:1012C000002B02D100F070F85FE03349314800F0A4
:1012D00053FD0346002BEED0002294212D4800F050
:1012E000EFFC2B4B4FF480521A6009E0284B1B682F
:1012F0005A1E27490A60002B02D100F055F844E03D
:101300002649244800F038FD0346002BEED07B68C8
:10131000DBB219461F4800F011FD1D4B4FF48052FF
:101320001A6009E01A4B1B685A1E19490A60002B03
:1013300002D100F039F828E01949164800F01CFDE8
:101340000346002BEED072B63B68DBB2194611485B
:1013500000F0F4FC0E4B4FF496121A6008E00C4BB0
:101360001B685A1E0A490A60002B01D100F01CF8C4
:101370000C49084800F030FD0346002BEFD0012156
:10138000044800F07DFC62B600BF1037BD4680BD4A
:1013900014030020005400400100030082000700F5
:1013A000800007000400001080B400AFFEE700BF1B
:1013B00080B487B000AF7860396000237B61002380
:1013C0003B610023FB6000237B6176E001227B69A7
:1013D00002FA03F33B613B681A683B691340FB6008
:1013E000FA683B699A4265D17B681A687B695B0041
:1013F000032101FA03F3DB431A407B681A607B6820
:101400001A683B681B7919467B695B0001FA03F394
:101410001A437B681A603B681B79012B03D03B6839
:101420001B79022B2ED17B689A687B695B000321B4
:1014300001FA03F3DB431A407B689A607B689A6881
:101440003B685B7919467B695B0001FA03F31A4339
:101450007B689A607B685A687B699BB21946012356
:101460008B40DB431A407B685A607B685B683A6854
:10147000927911467A6992B201FA02F292B21A4353
:101480007B685A607B68DA687B699BB25B000321EA
:1014900001FA03F3DB431A407B68DA607B68DA68A1
:1014A0003B68DB7919467B695B0001FA03F31A4359
:1014B0007B68DA607B6901337B617B690F2B85D99F
:1014C00000BF1C37BD4680BC704700BF80B483B0EE
:1014D00000AF78607B684FF6FF721A607B6800226D
:1014E0001A717B6800225A717B6800229A717B68AE
:1014F0000022DA7100BF0C37BD4680BC704700BFC8
:1015000080B485B000AF78600B467B800023FB730E
:101510007B681A697B881340002B02D00123FB7380
:1015200001E00023FB73FB7B18461437BD4680BCEB
:10153000704700BF80B483B000AF78600B467B80FB
:101540007B687A881A8300BF0C37BD4680BC704721
:1015500080B483B000AF78600B467B807B687A886C
:101560005A8300BF0C37BD4680BC704780B485B03D
:1015700000AF78600B467B8013467B700023FB60D6
:101580000023BB607A787B8803F007039B0002FA94
:1015900003F3FB607B88DB089BB218467B88DB0883
:1015A0009BB21A467B68083253F822207B8803F0EE
:1015B00007039B000F2101FA03F3DB4302EA030157
:1015C0007B6800F1080243F822107B88DB089BB29D
:1015D0001A467B68083253F82220FB681343BB602D
:1015E0007B88DB089BB21A467B680832B96843F8EF
:1015F000221000BF1437BD4680BC704780B500AFD5
:10160000124A124B1B6843F0010313600F4B002278
:101610009A600E4A0D4B1B6823F0847323F48033C9
:1016200013600A4B0A4A5A60084A084B1B6823F4A5
:1016300080231360054B0022DA6000F00DF8054BA3
:101640004FF000629A6000BF80BD00BF00380240CA
:101650001030002400ED00E080B483B000AF002320
:101660007B6000233B60354A344B1B6843F4803376
:101670001360324B1B6803F400333B607B6801331B
:101680007B603B68002B03D17B68B3F5A06FF0D182
:101690002A4B1B6803F40033002B02D001233B606C
:1016A00001E000233B603B68012B42D1234A234BDE
:1016B0001B6C43F080531364214A214B1B6843F495
:1016C000804313601D4A1D4B9B6893601B4A1B4B54
:1016D0009B6843F400439360184A184B9B6843F49B
:1016E000A0539360154B174A5A60144A134B1B685A
:1016F00043F08073136000BF104B1B6803F000734E
:10170000002BF9D0104B40F205621A600B4A0B4BCC
:101710009B6823F003039360084A084B9B6843F0DF
:101720000203936000BF054B9B6803F00C03082B7A
:10173000F9D100BF0C37BD4680BC7047003802406D
:101740000070004008544007003C024080B582B061
:1017500000AF78607B68174A93420AD101214FF4A9
:101760008050FFF7F3FA00214FF48050FFF7EEFAB4
:101770001CE07B68104A93420AD101214FF480405B
:10178000FFF7C6FA00214FF48040FFF7C1FA0DE0E1
:101790007B680A4A934209D101214FF40040FFF7C8
:1017A000B7FA00214FF40040FFF7B2FA00BF083744
:1017B000BD4680BD0030014000380040003C004084
:1017C00080B48BB000AF7860396000237B83022344
:1017D000FB840023BB8401237B840023FB61002363
:1017E0007B6100233B610023FB600023BB607B68BF
:1017F0009B8B9BB223F47B6323F00F039AB27B682D
:101800009A837B6802221A847B689B8B7B833B686C
:101810009B68022B04D10023BB840223FB8472E06B
:101820003B689B88002B02D101237B8401E00223CB
:101830007B844D4B9B6803F40003002B05D04A4A80
:10184000494B9B6823F400039360474BD3F88420F3
:1018500047F6C07313409B09C3F30803FB60424B78
:10186000D3F8843003F0E0431B0F03F00703BB60A1
:101870003D4B5B6803F03F033B613C4A3B69B2FB75
:10188000F3F3FA6802FB03F2BB68B2FBF3F37B618C
:101890003B68DB88B3F5007F0FD17B691A0A1346DA
:1018A0009B0013445B001A463B689B68B2FBF3F352
:1018B0009BB205339BB2FB6112E07B8C5B011A4645
:1018C0007B69B3FBF2F213469B0013445B001A469C
:1018D0003B689B68B2FBF3F39BB205339BB2FB61A1
:1018E000FB69234AA2FB0323DB08FB61FB699BB274
:1018F00003F00103BB84BB8CFA69D31A5B08FB8439
:10190000BB8C1B02BB84FB8C012B02D9FB8CFF2BF5
:1019100003D90223FB840023BB843B68DA88BB8C99
:1019200013439AB2FB8C13439AB27B681A843B68C8
:101930001A883B6859883B6898883B689B890343B1
:101940009BB20B439BB213439AB27B8B13439BB264
:1019500043F400637B837B687A8B9A8300BF2C37C8
:10196000BD4680BC704700BF0038024000127A00BC
:10197000CDCCCCCC80B483B000AF78600B46FB708C
:10198000FB78002B08D07B689B8B9BB243F4806371
:101990009AB27B689A8307E07B689B8B9BB223F4A7
:1019A00080639AB27B689A8300BF0C37BD4680BCC7
:1019B000704700BF80B483B000AF78600B467B8077
:1019C0007B687A889A8100BF0C37BD4680BC70471F
:1019D00080B485B000AF78600B467B800023FB733A
:1019E0007B681B899AB27B8813409BB2002B02D084
:1019F0000123FB7301E00023FB73FB7B18461437C4
:101A0000BD4680BC704700BF80B582B000AF786033
:101A10007B68174A93420AD101214FF40010FFF767
:101A200077F900214FF40010FFF772F91CE07B6892
:101A3000104A93420AD101214FF48000FFF768F960
:101A400000214FF48000FFF763F90DE07B680A4A3C
:101A5000934209D101214FF40000FFF759F9002109
:101A60004FF40000FFF754F900BF0837BD4680BDB2
:101A70000054004000580040005C004080B58AB02F
:101A800000AF786039600023FB8400237B8404234B
:101A9000BB84574BFB617B689B88FB84FB8C23F0EA
:101AA0003F03FB8407F10C031846FFF72DF87B6911
:101AB000FB61FB694F4AA2FB03239B0C7B84FA8CDE
:101AC0007B8C1343FB847B68FA8C9A807B681B8831
:101AD0009BB223F001039AB27B681A800023FB8437
:101AE0003B681B68444A934215D83B681B685B00FF
:101AF000FA69B2FBF3F3BB84BB8C032B01D804233C
:101B0000BB84FA8CBB8C1343FB847B8C01339AB26D
:101B10007B681A8440E03B68DB884BF6FF72934297
:101B200009D13B681A6813465B001344FA69B2FB9B
:101B3000F3F3BB840EE03B681A6813469B00134422
:101B40009A001344FA69B2FBF3F3BB84BB8C43F4F1
:101B50008043BB84BB8CC3F30B03002B03D1BB8C32
:101B600043F00103BB84BA8CFB8C13439BB26FEA36
:101B700043436FEA5343FB847B8C4FF4967202FB22
:101B800003F31E4A82FB03129211DB17D31A9BB296
:101B900001339AB27B681A847B68FA8C9A837B68DB
:101BA0001B889BB243F001039AB27B681A807B6862
:101BB0001B88FB84FB8C23F4816323F00203FB84EA
:101BC0003B689A883B685B8913439AB2FB8C13434A
:101BD000FB847B68FA8C1A803B689A893B681B8976
:101BE00013439AB27B681A8100BF2837BD4680BD77
:101BF00000127A0083DE1B43A0860100D34D6210E1
:101C000080B483B000AF78600B46FB70FB78002B8C
:101C100008D07B681B889BB243F001039AB27B68B3
:101C20001A8007E07B681B889BB223F001039AB2FD
:101C30007B681A8000BF0C37BD4680BC704700BF70
:101C400080B483B000AF78600B46FB70FB78002B4C
:101C500008D07B681B889BB243F480739AB27B6880
:101C60001A8007E07B681B889BB223F480739AB2CA
:101C70007B681A8000BF0C37BD4680BC704700BF30
:101C800080B483B000AF78600B46FB70FB78002B0C
:101C900008D07B681B889BB243F400739AB27B68C0
:101CA0001A8007E07B681B889BB223F400739AB20A
:101CB0007B681A8000BF0C37BD4680BC704700BFF0
:101CC00080B483B000AF78600B46FB701346BB70E6
:101CD000BB78002B04D0FB7843F00103FB7003E0DA
:101CE000FB7823F00103FB70FB789AB27B681A82C1
:101CF00000BF0C37BD4680BC704700BF80B483B0C6
:101D000000AF78600B46FB70FB78002B08D07B6837
:101D10001B889BB243F480639AB27B681A8007E009
:101D20007B681B889BB223F480639AB27B681A801D
:101D300000BF0C37BD4680BC704700BF80B483B085
:101D400000AF78600B46FB70FB789AB27B681A8212
:101D500000BF0C37BD4680BC704700BF80B483B065
:101D600000AF78607B681B8A9BB2DBB218460C37E9
:101D7000BD4680BC704700BF80B487B000AF7860BC
:101D8000396000233B610023FB600023BB6000231C
:101D9000FB757B689B8A9BB2FB607B681B8B9BB24D
:101DA000BB60BB681B04BB60FA68BB68134323F0CD
:101DB0007F433B613A693B681A403B689A4202D1D3
:101DC0000123FB7501E00023FB75FB7D18461C37E2
:101DD000BD4680BC704700BF80B487B000AF78605C
:101DE00039600023FB7500233B610023FB607B68A7
:101DF000FB603B681B0F3B613B6823F07F433B600C
:101E00003B69002B03D0FB681433FB6005E03B68A3
:101E10001B0C3B60FB681833FB60FB681A683B686F
:101E20001340002B02D00123FB7501E00023FB755A
:101E3000FB7D18461C37BD4680BC704780B485B01A
:101E400000AF78600023FB60344BFB607B689B79BC
:101E5000002B4FD03149314B1A687B681B68DB433C
:101E600013400B602D492D4B5A687B681B68DB4380
:101E700013404B607B681B791A46FB681344FB6078
:101E8000FB68FA6811687A6812680A431A60234985
:101E9000224B9A687B681B68DB4313408B601F49A9
:101EA0001E4BDA687B681B68DB431340CB607B68A2
:101EB0005B79102B0ED11949184B9A687B681B6807
:101EC00013438B601549154BDA687B681B68134315
:101ED000CB601DE0114BFB607B685B791A46FB68A9
:101EE0001344FB60FB68FA6811687A6812680A4359
:101EF0001A600DE07B681B791A46FB681344FB608F
:101F0000FB68FA6811687A681268D2430A401A605E
:101F100000BF1437BD4680BC704700BF003C014085
:101F200080B485B000AF78600023FB730023BB60F2
:101F30000C4B1A687B681340BB600A4B5A697B687C
:101F40001340002B05D0BB68002B02D00123FB738C
:101F500001E00023FB73FB7B18461437BD4680BCB1
:101F6000704700BF003C014080B483B000AF786090
:101F7000034A7B68536100BF0C37BD4680BC704785
:101F8000003C014080B483B000AF7860054A7B68B4
:101F900043F0BF6343F40033D36000BF0C37BD464A
:101FA00080BC704700ED00E080B485B000AF786081
:101FB0000023FB730023BB730F237B737B68DB78E9
:101FC000002B38D0264BDB68DB4303F4E0631B0AAD
:101FD000FB73FB7BC3F10403BB737A7BFB7B42FA8D
:101FE00003F37B737B685B781A46BB7B02FA03F3CF
:101FF000FB737B689A787B7B1340DAB2FB7B1343DD
:10200000FB73FB7B1B01FB73164A7B681B78134435
:10201000FA7B83F80023134A7B681B785B09DBB2E9
:1020200018467B681B7803F01F03012101FA03F3B4
:1020300042F820300FE00B497B681B785B09DBB26C
:1020400018467B681B7803F01F0301229A4000F1B9
:10205000200341F8232000BF1437BD4680BC7047E1
:1020600000ED00E000E100E080B485B000AF7860F2
:1020700039600023FB817B681B88FB817B68284AD1
:10208000934213D07B68274A93420FD07B68B3F109
:10209000804F0BD07B68244A934207D07B68234A49
:1020A000934203D07B68224A934208D1FB8923F0F4
:1020B0007003FB813B685A88FB891343FB817B6873
:1020C0001C4A93420CD07B681B4A934208D0FB8980
:1020D00023F44073FB813B681A89FB891343FB811E
:1020E0007B68FA891A803B685A687B68DA623B68C9
:1020F0001A887B681A857B68094A934203D07B68FB
:10210000084A934204D13B689B7A9AB27B681A864C
:102110007B6801229A8200BF1437BD4680BC70479D
:10212000000001400004014000040040000800409D
:10213000000C0040001000400014004080B483B048
:1021400000AF786039607B683A685A6200BF0C372C
:10215000BD4680BC704700BF80B483B000AF7860DC
:102160000B46FB70FB78002B08D07B681B889BB26A
:1021700043F001039AB27B681A8007E07B681B88F2
:102180009BB223F001039AB27B681A8000BF0C3720
:10219000BD4680BC704700BF80B483B000AF78609C
:1021A0000B467B8013467B707B78002B08D07B68C6
:1021B0009B899AB27B8813439AB27B689A8109E023
:1021C0007B689B899AB27B88DB439BB213409AB2AF
:1021D0007B689A8100BF0C37BD4680BC704700BF4A
:1021E00080B485B000AF78600B467B800023FB7322
:1021F0000023BB8100237B817B681B8A9AB27B888A
:102200001340BB817B689B899AB27B8813407B819A
:10221000BB89002B05D07B89002B02D00123FB73E7
:1022200001E00023FB73FB7B18461437BD4680BCDE
:10223000704700BF80B483B000AF78600B467B80EE
:102240007B88DB439AB27B681A8200BF0C37BD469D
:1022500080BC704781F0004102E000BF83F0004382
:1022600030B54FEA41044FEA430594EA050F08BF31
:1022700090EA020F1FBF54EA000C55EA020C7FEAF5
:10228000645C7FEA655C00F0E2804FEA5454D4EB72
:102290005555B8BF6D420CDD2C4480EA020281EA3C
:1022A000030382EA000083EA010180EA020281EA74
:1022B0000303362D88BF30BD11F0004F4FEA0131C6
:1022C0004FF4801C4CEA113102D0404261EB4101D5
:1022D00013F0004F4FEA03334CEA133302D052425B
:1022E00063EB430394EA050F00F0A780A4F1010417
:1022F000D5F1200E0DDB02FA0EFC22FA05F2801851
:1023000041F1000103FA0EF2801843FA05F3594136
:102310000EE0A5F120050EF1200E012A03FA0EFCB5
:1023200028BF4CF0020C43FA05F3C01851EBE371DF
:1023300001F0004507D54FF0000EDCF1000C7EEBFC
:1023400000006EEB0101B1F5801F1BD3B1F5001F3A
:102350000CD349085FEA30004FEA3C0C04F1010459
:102360004FEA445212F5800F80F09A80BCF1004F82
:1023700008BF5FEA500C50F1000041EB045141EA04
:10238000050130BD5FEA4C0C404141EB010111F405
:10239000801FA4F10104E9D191F0000F04BF0146B0
:1023A0000020B1FA81F308BF2033A3F10B03B3F18E
:1023B00020020CDA0C3208DD02F1140CC2F10C021E
:1023C00001FA0CF021FA02F10CE002F11402D8BF7C
:1023D000C2F1200C01FA02F120FA0CFCDCBF41EA48
:1023E0000C019040E41AA2BF01EB0451294330BD17
:1023F0006FEA04041F3C1CDA0C340EDC04F11404F4
:10240000C4F1200220FA04F001FA02F340EA0300CA
:1024100021FA04F345EA030130BDC4F10C04C4F110
:10242000200220FA02F001FA04F340EA03002946F0
:1024300030BD21FA04F0294630BD94F0000F83F43A
:10244000801306BF81F480110134013D4EE77FEA1D
:10245000645C18BF7FEA655C29D094EA050F08BF69
:1024600090EA020F05D054EA000C04BF194610464A
:1024700030BD91EA030F1EBF0021002030BD5FEA8E
:10248000545C05D14000494128BF41F0004130BDB6
:1024900014F580043CBF01F5801130BD01F000450A
:1024A00045F0FE4141F470014FF0000030BD7FEA7D
:1024B000645C1ABF194610467FEA655C1CBF0B4678
:1024C000024650EA013406BF52EA033591EA030F8F
:1024D00041F4002130BD00BF90F0000F04BF002187
:1024E000704730B54FF4806404F132044FF00005BA
:1024F0004FF0000150E700BF90F0000F04BF002133
:10250000704730B54FF4806404F1320410F0004598
:1025100048BF40424FF000013EE700BF42004FEA93
:10252000E2014FEA31014FEA02701FBF12F07F4310
:1025300093F07F4F81F06051704792F0000F14BF0D
:1025400093F07F4F704730B54FF4607401F0004551
:1025500021F0004120E700BF50EA010208BF7047A8
:1025600030B54FF000050AE050EA010208BF70479D
:1025700030B511F0004502D5404261EB41014FF406
:10258000806404F132045FEA915C3FF4DCAE4FF00A
:1025900003025FEADC0C18BF03325FEADC0C18BFF1
:1025A000033202EBDC02C2F1200300FA03FC20FA42
:1025B00002F001FA03FE40EA0E0021FA02F114448F
:1025C000C1E600BF70B54FF0FF0C4CF4E06C1CEAA4
:1025D00011541DBF1CEA135594EA0C0F95EA0C0F19
:1025E00000F0DEF82C4481EA030621EA4C5123EA8C
:1025F0004C5350EA013518BF52EA033541F48011BB
:1026000043F4801338D0A0FB02CE4FF00005E1FB6D
:1026100002E506F00042E0FB03E54FF00006E1FBB7
:1026200003569CF0000F18BF4EF0010EA4F1FF04FA
:10263000B6F5007F64F5407404D25FEA4E0E6D413A
:1026400046EB060642EAC62141EA55514FEAC5204B
:1026500040EA5E504FEACE2EB4F1FD0C88BFBCF5C7
:10266000E06F1ED8BEF1004F08BF5FEA500E50F178
:10267000000041EB045170BD06F0004646EA01013E
:1026800040EA020081EA0301B4EB5C04C2BFD4EB70
:102690000C0541EA045170BD41F480114FF0000E69
:1026A000013C00F3AB8014F1360FDEBF002001F0D7
:1026B000004170BDC4F10004203C35DA0C341BDC51
:1026C00004F11404C4F1200500FA05F320FA04F023
:1026D00001FA05F240EA020001F0004221F0004157
:1026E00010EBD37021FA04F642EB06015EEA430ECA
:1026F00008BF20EAD37070BDC4F10C04C4F12005FA
:1027000000FA04F320FA05F001FA04F240EA0200AC
:1027100001F0004110EBD37041F100015EEA430E7D
:1027200008BF20EAD37070BDC4F1200500FA05F29D
:102730004EEA020E20FA04F301FA05F243EA02031C
:1027400021FA04F001F0004121FA04F220EA02002B
:1027500000EBD3705EEA430E08BF20EAD37070BD71
:1027600094F0000F0FD101F00046400041EB010151
:1027700011F4801F08BF013CF7D041EA060195F033
:10278000000F18BF704703F00046520043EB0303ED
:1027900013F4801F08BF013DF7D043EA06037047DA
:1027A00094EA0C0F0CEA135518BF95EA0C0F0CD0E5
:1027B00050EA410618BF52EA4306D1D181EA03012B
:1027C00001F000414FF0000070BD50EA410606BF25
:1027D0001046194652EA430619D094EA0C0F02D16A
:1027E00050EA013613D195EA0C0F05D152EA0336AF
:1027F0001CBF104619460AD181EA030101F00041CD
:1028000041F0FE4141F470014FF0000070BD41F015
:10281000FE4141F4780170BD70B54FF0FF0C4CF4EF
:10282000E06C1CEA11541DBF1CEA135594EA0C0F0E
:1028300095EA0C0F00F0A7F8A4EB050481EA030E5B
:1028400052EA03354FEA013100F088804FEA033342
:102850004FF0805545EA131343EA12634FEA022210
:1028600045EA111545EA10654FEA00260EF00041D1
:102870009D4208BF964244F1FD0404F5407402D223
:102880005B084FEA3202B61A65EB03055B084FEAB4
:1028900032024FF480104FF4002CB6EB020E75EBB1
:1028A000030E22BFB61A754640EA0C005B084FEAD9
:1028B0003202B6EB020E75EB030E22BFB61A754656
:1028C00040EA5C005B084FEA3202B6EB020E75EBA1
:1028D000030E22BFB61A754640EA9C005B084FEA19
:1028E0003202B6EB020E75EB030E22BFB61A754626
:1028F00040EADC0055EA060E18D04FEA051545EA15
:1029000016754FEA06164FEAC30343EA52734FEABD
:10291000C2025FEA1C1CC0D111F4801F0BD141EA36
:1029200000014FF000004FF0004CB6E711F4801F9B
:1029300004BF01430020B4F1FD0C88BFBCF5E06F7B
:102940003FF6AFAEB5EB030C04BFB6EB020C5FEA8B
:10295000500C50F1000041EB045170BD0EF0004EE0
:102960004EEA113114EB5C04C2BFD4EB0C0541EA12
:10297000045170BD41F480114FF0000E013C90E60F
:1029800045EA060E8DE60CEA135594EA0C0F08BFD3
:1029900095EA0C0F3FF43BAF94EA0C0F0AD150EAD2
:1029A00001347FF434AF95EA0C0F7FF425AF104665
:1029B00019462CE795EA0C0F06D152EA03353FF48D
:1029C000FDAE1046194622E750EA410618BF52EA0A
:1029D00043067FF4C5AE50EA41047FF40DAF52EADE
:1029E00043057FF4EBAE12E74A0011D212F5001254
:1029F00011D20DD56FF47873B3EB62520ED44FEA57
:102A0000C12343F0004343EA505323FA02F07047D6
:102A10004FF00000704750EA013002D14FF0FF3014
:102A200070474FF00000704780F0004002E000BFA8
:102A300081F0004142001FBF5FEA410392EA030FA9
:102A40007FEA226C7FEA236C6AD04FEA1262D2EBF3
:102A50001363C1BFD218414048404140B8BF5B42F8
:102A6000192B88BF704710F0004F40F4000020F091
:102A70007F4018BF404211F0004F41F4000121F0A7
:102A80007F4118BF494292EA030F3FD0A2F10102F1
:102A900041FA03FC10EB0C00C3F1200301FA03F12F
:102AA00000F0004302D5494260EB4000B0F5000F52
:102AB00013D3B0F1807F06D340084FEA310102F111
:102AC0000102FE2A51D2B1F1004F40EBC25008BFC3
:102AD00020F0010040EA03007047490040EB00008D
:102AE00010F4000FA2F10102EDD1B0FA80FCACF1BC
:102AF000080CB2EB0C0200FA0CF0AABF00EBC250BB
:102B000052421843BCBFD0401843704792F0000FA8
:102B100081F4000106BF80F400000132013BB5E7FB
:102B20004FEA41037FEA226C18BF7FEA236C21D071
:102B300092EA030F04D092F0000F08BF08467047D6
:102B400090EA010F1CBF0020704712F07F4F04D1A4
:102B5000400028BF40F00040704712F100723CBFB7
:102B600000F50000704700F0004343F0FE4040F4E1
:102B7000000070477FEA226216BF08467FEA23639F
:102B80000146420206BF5FEA412390EA010F40F48A
:102B9000800070474FF0000304E000BF10F00043D6
:102BA00048BF40425FEA000C08BF704743F09643BD
:102BB00001464FF000001CE050EA010208BF7047D8
:102BC0004FF000030AE000BF50EA010208BF70475F
:102BD00011F0004302D5404261EB41015FEA010C74
:102BE00002BF84460146002043F0B64308BFA3F16C
:102BF0008053A3F50003BCFA8CF2083AA3EBC2534E
:102C000010DB01FA02FC634400FA02FCC2F120026C
:102C1000BCF1004F20FA02F243EB020008BF20F0A3
:102C20000100704702F1200201FA02FCC2F1200209
:102C300050EA4C0021FA02F243EB020008BF20EAFE
:102C4000DC7070474FF0FF0C1CEAD0521EBF1CEA2C
:102C5000D15392EA0C0F93EA0C0F6FD01A4480EA1A
:102C6000010C400218BF5FEA41211ED04FF0006303
:102C700043EA501043EA5111A0FB01310CF000402F
:102C8000B1F5000F3EBF490041EAD3715B0040EA55
:102C9000010062F17F02FD2A1DD8B3F1004F40EB25
:102CA000C25008BF20F00100704790F0000F0CF0F8
:102CB000004C08BF49024CEA502040EA51207F3ABC
:102CC000C2BFD2F1FF0340EAC250704740F4000097
:102CD0004FF00003013A5DDC12F1190FDCBF00F088
:102CE00000407047C2F10002410021FA02F1C2F136
:102CF000200200FA02FC5FEA310040F1000053EAD2
:102D00004C0308BF20EADC70704792F0000F00F01F
:102D1000004C02BF400010F4000F013AF9D040EA25
:102D20000C0093F0000F01F0004C02BF490011F4B9
:102D3000000F013BF9D041EA0C018FE70CEAD153B7
:102D400092EA0C0F18BF93EA0C0F0AD030F0004C37
:102D500018BF31F0004CD8D180EA010000F00040EB
:102D6000704790F0000F17BF90F0004F084691F0A9
:102D7000000F91F0004F14D092EA0C0F01D14202E3
:102D80000FD193EA0C0F03D14B0218BF084608D1AC
:102D900080EA010000F0004040F0FE4040F40000F6
:102DA000704740F0FE4040F4400070474FF0FF0C89
:102DB0001CEAD0521EBF1CEAD15392EA0C0F93EAD0
:102DC0000C0F69D0A2EB030280EA010C49024FEA22
:102DD000402037D04FF0805343EA111143EA1013DB
:102DE0000CF000408B4238BF5B0042F17D024FF493
:102DF000000C8B4224BF5B1A40EA0C00B3EB510F6E
:102E000024BFA3EB510340EA5C00B3EB910F24BF56
:102E1000A3EB910340EA9C00B3EBD10F24BFA3EBDB
:102E2000D10340EADC001B0118BF5FEA1C1CE0D1A3
:102E3000FD2A3FF650AF8B4240EBC25008BF20F056
:102E4000010070470CF0004C4CEA50207F32C2BFAA
:102E5000D2F1FF0340EAC250704740F400004FF047
:102E60000003013A37E792F0000F00F0004C02BF78
:102E7000400010F4000F013AF9D040EA0C0093F042
:102E8000000F01F0004C02BF490011F4000F013B9C
:102E9000F9D041EA0C0195E70CEAD15392EA0C0F04
:102EA00008D142027FF47DAF93EA0C0F7FF470AF3C
:102EB000084676E793EA0C0F04D14B023FF44CAF7F
:102EC00008466EE730F0004C18BF31F0004CCAD114
:102ED00030F000427FF45CAF31F000437FF43CAF50
:102EE0005FE700BF4FEA4002B2F1FE4F0FD34FF051
:102EF0009E03B3EB12620DD94FEA002343F0004367
:102F000010F0004F23FA02F018BF404270474FF014
:102F10000000704712F1610F01D1420205D110F09B
:102F2000004008BF6FF0004070474FF0000070474E
:102F3000130600000000240347066A098B0CAB0F40
:102F4000C812E215F8180B1C191F23222825262861
:102F50001F2B112EFB30DE33BA368C39563C173F0F
:102F6000CE417A441C47B4493F4CBF4E33519B532A
:102F7000F5554258825AB45CD75EEC60F262E86460
:102F8000CF66A6686D6A246CCA6D5F6FE270557279
:102F9000B573047541766C7784788A797D7A5D7B28
:102FA000297CE37C8A7D1D7E9D7E097F627FA77FD1
:102FB000D87FF67FFF7FF67FD87FA77F627F097F6C
:102FC0009D7E1D7E8A7DE37C297C5D7B7D7A8A796E
:102FD00084786C7741760475B5735572E2705F6FD3
:102FE000CA6D246C6D6AA668CF66E864F262EC6014
:102FF000D75EB45C825A4258F5559B533351BF4E4D
:103000003F4CB4491C477A44CE41173F563C8C395B
:10301000BA36DE33FB30112E1F2B2628282523221B
:10302000191F0B1CF818E215C812AB0F8B0C6A099C
:10303000470624030000DCFCB9F996F675F355F059
:1030400038ED1EEA08E7F5E3E7E0DDDDD8DADAD7A8
:10305000E1D4EFD105CF22CC46C974C6AAC3E9C0DA
:1030600032BE86BBE4B84CB6C1B341B1CDAE65AC9F
:103070000BAABEA77EA54CA329A1149F0E9D189B49
:1030800031995A979395DC933692A1901E8FAB8D10
:103090004B8CFC8ABF8994887C8776868385A38441
:1030A000D7831D837682E3816381F7809E80598078
:1030B00028800A8000800A80288059809E80F780BE
:1030C0006381E38176821D83D783A384838576869B
:1030D0007C879488BF89FC8A4B8CAB8D1E8FA19016
:1030E0003692DC9393955A973199189B0E9D149FB5
:1030F00029A14CA37EA5BEA70BAA65ACCDAE41B15C
:10310000C1B34CB6E4B886BB32BEE9C0AAC374C62C
:1031100046C922CC05CFEFD1E1D4DAD7D8DADDDD4C
:10312000E7E0F5E308E71EEA38ED55F075F396F6AB
:10313000B9F9DCFC00086108C20823098309E20927
:10314000400A9D0AF80A510BA80BFD0B4F0C9E0C70
:10315000EB0C350D7B0DBE0DFD0D380E700EA40E63
:10316000D30EFE0E250F470F650F7E0F920FA20F95
:10317000AD0FB30FB40FB00FA80F9B0F890F720FD5
:10318000560F360F120FE90EBC0E8A0E550E1B0E8F
:10319000DE0D9D0D580D100DC50C770C260CD30BB4
:1031A0007D0B250BCB0A6F0A120AB3095309F308EA
:1031B00092083008CF076D070C07AC064C06ED05EA
:1031C00090053405DA0482042C04D90388033A03F9
:1031D000EF02A70262022102E401AA017501430184
:1031E0001601ED00C900A9008D00760064005700AB
:1031F0004F004B004C0052005D006D0081009A00B2
:10320000B800DA0001012C015B018F01C701020245
:1032100041028402CA0214036103B003020457048A
:10322000AE0407056205BF051D067C06DC063D07EA
:103230009E07FF07000000000102030401020304CF
:083240000607080900C0120096
:0400000508000000EF
:00000001FF
